{
  "transactions": [
    {
      "hash": "0x61ad782d2b28e862db222cb1f0b4593206c8d4e2c4bb5e976528d559ca1efa39",
      "transactionType": "CALL",
      "contractName": null,
      "contractAddress": "0x35924896a6774f81dae93316db01717fa446a7d4",
      "function": "upgradeToAndCall(address,bytes)",
      "arguments": [
        "0x62bab1fCDc72A6922F0847E9730ACafe7B2457c1",
        "0xd608ea64000000000000000000000000000000000000000000000000000000000000002000000000000000000000000000000000000000000000000000000000000000155632204665617475726573204163746976617465640000000000000000000000"
      ],
      "transaction": {
        "from": "0x59722922daa07f4c3f64a0c89dbdeae55669d258",
        "to": "0x35924896a6774f81dae93316db01717fa446a7d4",
        "gas": "0x18edb",
        "value": "0x0",
        "input": "0x4f1ef28600000000000000000000000062bab1fcdc72a6922f0847e9730acafe7b2457c100000000000000000000000000000000000000000000000000000000000000400000000000000000000000000000000000000000000000000000000000000064d608ea6400000000000000000000000000000000000000000000000000000000000000200000000000000000000000000000000000000000000000000000000000000015563220466561747572657320416374697661746564000000000000000000000000000000000000000000000000000000000000000000000000000000",
        "nonce": "0xc",
        "chainId": "0xaa36a7"
      },
      "additionalContracts": [],
      "isFixedGasLimit": false
    }
  ],
  "receipts": [
    {
      "status": "0x1",
      "cumulativeGasUsed": "0xb20b26",
      "logs": [
        {
          "address": "0x35924896a6774f81dae93316db01717fa446a7d4",
          "topics": [
            "0xbc7cd75a20ee27fd9adebab32041f755214dbc6bffa90cc0225b39da2e5c2d3b",
            "0x00000000000000000000000062bab1fcdc72a6922f0847e9730acafe7b2457c1"
          ],
          "data": "0x",
          "blockHash": "0xdaec36bf20062dfe2caca3d8342abecc575b7e0634c039a4e017e92e8dc6865c",
          "blockNumber": "0x949d52",
          "blockTimestamp": "0x692c69dc",
          "transactionHash": "0x61ad782d2b28e862db222cb1f0b4593206c8d4e2c4bb5e976528d559ca1efa39",
          "transactionIndex": "0x45",
          "logIndex": "0x74",
          "removed": false
        },
        {
          "address": "0x35924896a6774f81dae93316db01717fa446a7d4",
          "topics": [
            "0xc7f505b2f371ae2175ee4913f4499e1f2633a7b5936321eed1cdaeb6115181d2"
          ],
          "data": "0x0000000000000000000000000000000000000000000000000000000000000002",
          "blockHash": "0xdaec36bf20062dfe2caca3d8342abecc575b7e0634c039a4e017e92e8dc6865c",
          "blockNumber": "0x949d52",
          "blockTimestamp": "0x692c69dc",
          "transactionHash": "0x61ad782d2b28e862db222cb1f0b4593206c8d4e2c4bb5e976528d559ca1efa39",
          "transactionIndex": "0x45",
          "logIndex": "0x75",
          "removed": false
        }
      ],
      "logsBloom": "0x00000000000000000000000000000000400000000000010000000000000000000008000000000000000000000000000000000000000000000000000000000000000000000000000000000000000002000000000000000000000000000000000000000000008080000000000000000000000000000000000000000000000000000000000000000000000800000000000000000000000080000000000000000000000000000000000000000000200000000000000000000000000000000000000000000020000000800000000000000000000000000004000000000000000000000000000000000000000000000000000000000000000000000000000000000000",
      "type": "0x2",
      "transactionHash": "0x61ad782d2b28e862db222cb1f0b4593206c8d4e2c4bb5e976528d559ca1efa39",
      "transactionIndex": "0x45",
      "blockHash": "0xdaec36bf20062dfe2caca3d8342abecc575b7e0634c039a4e017e92e8dc6865c",
      "blockNumber": "0x949d52",
      "gasUsed": "0x110b9",
      "effectiveGasPrice": "0xf424c",
      "from": "0x59722922daa07f4c3f64a0c89dbdeae55669d258",
      "to": "0x35924896a6774f81dae93316db01717fa446a7d4",
      "contractAddress": null
    }
  ],
  "libraries": [],
  "pending": [],
  "returns": {},
  "timestamp": 1764518365742,
  "chain": 11155111,
  "commit": null
}